{
  "_format": "hh-sol-artifact-1",
  "contractName": "PriceSummary",
  "sourceName": "contracts/oracle/PriceSummary.sol",
  "abi": [
    {
      "inputs": [
        {
          "internalType": "int256",
          "name": "_answerETH",
          "type": "int256"
        },
        {
          "internalType": "int256",
          "name": "_answerBTC",
          "type": "int256"
        },
        {
          "internalType": "int256",
          "name": "_answerLINK",
          "type": "int256"
        },
        {
          "internalType": "int256",
          "name": "_answerUSDC",
          "type": "int256"
        },
        {
          "internalType": "int256",
          "name": "answerBIT",
          "type": "int256"
        }
      ],
      "name": "setLatestAnswers",
      "outputs": [],
      "stateMutability": "nonpayable",
      "type": "function"
    }
  ],
  "bytecode": "0x608060405234801561001057600080fd5b506102de806100206000396000f3fe608060405234801561001057600080fd5b506004361061002b5760003560e01c8063016372f714610030575b600080fd5b610065600480360360a081101561004657600080fd5b5080359060208101359060408101359060608101359060800135610067565b005b73143fd780bdbc43441b099a3f6e63933988b5a6576001600160a01b03166304ea97b0866040518263ffffffff1660e01b815260040180828152602001915050600060405180830381600087803b1580156100c157600080fd5b505af11580156100d5573d6000803e3d6000fd5b5050505073438ec8fb9583aec39fdee599d1086c5d885e6cfb6001600160a01b03166304ea97b0856040518263ffffffff1660e01b815260040180828152602001915050600060405180830381600087803b15801561013357600080fd5b505af1158015610147573d6000803e3d6000fd5b5050505073f5ac2652ab772b55ed181657b2c7c5144a3701476001600160a01b03166304ea97b0846040518263ffffffff1660e01b815260040180828152602001915050600060405180830381600087803b1580156101a557600080fd5b505af11580156101b9573d6000803e3d6000fd5b5050505073062aaab8c5006cfdac5ffc1ca660a72dd39ac5746001600160a01b03166304ea97b0836040518263ffffffff1660e01b815260040180828152602001915050600060405180830381600087803b15801561021757600080fd5b505af115801561022b573d6000803e3d6000fd5b5050505073fd977d0c119feb95eebac66aae13b3485c020fe06001600160a01b03166304ea97b0826040518263ffffffff1660e01b815260040180828152602001915050600060405180830381600087803b15801561028957600080fd5b505af115801561029d573d6000803e3d6000fd5b50505050505050505056fea26469706673582212207015577a1bbaeaab5f27c0952effe1cd1e56e966e207c5c3316d69c5a317ecd864736f6c634300060c0033",
  "linkReferences": {},
  "deployedLinkReferences": {}
}